:100000000C9486000C94B7000C94B7000C94B700C5
:100010000C94B7000C94B7000C94B7000C94B70084
:100020000C94B7000C94B7000C94B7000C94B70074
:100030000C94B7000C94B7000C94B7000C94B70064
:100040000C94B7000C94B7000C94B7000C94B70054
:100050000C94B7000C94B7000C94B7000C94BA023F
:100060000C94B7000C942E030C9404030C94B7006A
:100070000C94B7000C94B7000C94B7000C94B70024
:100080000C94B7000C94B7000C94B7000C94B70014
:100090000C94B7000C94B7000C94B7000C94B70004
:1000A0000C94B7000C94B7000C94B7000C94B700F4
:1000B0000C94B7000C94B7000C94B7000C94B700E4
:1000C0000C94B7000C94B7000C94B7000C94B700D4
:1000D0000C94B7000C94B7000C94B7000C94B700C4
:1000E0000C94B7000C94E7010C9411010C94AF012F
:1000F0000C9434020C9442050C94A1010C944D0113
:100100000C9464030C943E016403420511241FBE49
:10011000CFEFD1E2DEBFCDBF00E00CBF23E0A8E50A
:10012000B2E001C01D92A231B207E1F712E0A0E0F7
:10013000B2E0E6EFFEE000E00BBF02C007900D92D8
:10014000A835B107D9F710E0C5E8D0E000E006C057
:1001500021970109802FFE010E944B05C438D10769
:1001600080E00807A9F70E94E0030C9469070C944B
:1001700000003FB7F8948091590290915A02A091E3
:100180005B02B0915C0226B5A89B05C02F3F19F019
:100190000196A11DB11D3FBFBA2FA92F982F882707
:1001A000BC01CD01620F711D811D911D42E0660FE2
:1001B000771F881F991F4A95D1F708958F929F92B4
:1001C000AF92BF92CF92DF92EF92FF924B015C0110
:1001D0000E94B9006B017C010E94B9006C197D0975
:1001E0008E099F09683E734081059105A8F321E0BF
:1001F000821A9108A108B10888EEC80E83E0D81EC3
:10020000E11CF11C81149104A104B10429F7FF90B1
:10021000EF90DF90CF90BF90AF909F908F90089518
:100220000895AF92BF92CF92DF92EF92FF920F9319
:100230001F93CF93DF936C017B018B01040F151F7C
:10024000EB015E01AE18BF08C017D10759F06991E4
:10025000D601ED91FC910190F081E02DC601199538
:10026000892B79F7C501DF91CF911F910F91FF90F5
:10027000EF90DF90CF90BF90AF900895FC01538D29
:10028000448D252F30E0842F90E0821B930B541770
:1002900010F0CF96089501970895FC01918D828DFD
:1002A000981761F0A28DAE0FBF2FB11D5D968C9196
:1002B000928D9F5F9F73928F90E008958FEF9FEFD5
:1002C00008952FB7F89480915D0290915E02A091FD
:1002D0005F02B09160022FBF8093690290936A021F
:1002E000A0936B02B0936C0281E692E00E944D01F4
:1002F00097FF26C02FB7F89480915D0290915E021F
:10030000A0915F02B09160022FBF409169025091AD
:100310006A0260916B0270916C02841B950BA60BB4
:10032000B70B40916502509166026091670270912F
:10033000680284179507A607B707B0F28FEF9FEF03
:100340000895FC01918D828D981731F0828DE80F10
:10035000F11D858D90E008958FEF9FEF0895FC01CA
:10036000918D228D892F90E0805C9F4F821B910997
:100370008F739927089581E692E00E94AF0121E0F2
:10038000892B09F420E0822F0895FC01A48DA80F89
:10039000B92FB11DA35ABF4F2C91848D90E00196C7
:1003A0008F739927848FA689B7892C93A089B189E7
:1003B0008C91837080648C93938D848D981306C088
:1003C0000288F389E02D80818F7D80830895EF92EC
:1003D000FF920F931F93CF93DF93EC0181E0888FFF
:1003E0009B8D8C8D98131AC0E889F989808185FFCF
:1003F00015C09FB7F894EE89FF896083E889F98971
:1004000080818370806480839FBF81E090E0DF9172
:10041000CF911F910F91FF90EF900895F62E0B8DC5
:1004200010E00F5F1F4F0F731127E02E8C8D8E1180
:100430000CC00FB607FCFACFE889F989808185FFE7
:10044000F5CFCE010E94C501F1CFEB8DEC0FFD2F52
:10045000F11DE35AFF4FF0829FB7F8940B8FEA89A2
:10046000FB8980818062CFCFCF93DF93EC01888DB1
:100470008823B9F0AA89BB89E889F9898C9185FD1F
:1004800003C0808186FD0DC00FB607FCF7CF8C91AD
:1004900085FFF2CF808185FFEDCFCE010E94C5019F
:1004A000E9CFDF91CF91089580E090E0892B29F08A
:1004B0000E94BB0181110E94000080E090E0892B26
:1004C00049F080E090E0892B29F00E940000811122
:1004D0000E94000080E090E0892B49F080E090E0ED
:1004E000892B29F00E94000081110E94000080E009
:1004F00090E0892B49F080E090E0892B29F00E9460
:10050000000081110C9400000895FC01019000206E
:10051000E9F73197AF01481B590BBC0181E692E026
:100520000C9411010F931F93CF93DF93EC018881FB
:100530009981009759F02A813B812617370730F0BF
:1005400081E0DF91CF911F910F9108958B016F5F33
:100550007F4F0E947806009759F0998388831B8308
:100560000A832C813D81232B59F7FC011082E8CFAF
:1005700080E0E7CF1F920F920FB60F9211242F93B6
:100580003F938F939F93AF93BF9380915D02909120
:100590005E02A0915F02B09160023091580223E0A8
:1005A000230F2D3758F50196A11DB11D2093580238
:1005B00080935D0290935E02A0935F02B09360020D
:1005C0008091590290915A02A0915B02B0915C0215
:1005D0000196A11DB11D8093590290935A02A093D8
:1005E0005B02B0935C02BF91AF919F918F913F915D
:1005F0002F910F900FBE0F901F90189526E8230F94
:100600000296A11DB11DD2CF1F920F920FB60F926D
:1006100011240BB60F922F933F934F935F936F93D9
:100620007F938F939F93AF93BF93EF93FF9381E655
:1006300092E00E94C501FF91EF91BF91AF919F9110
:100640008F917F916F915F914F913F912F910F907B
:100650000BBE0F900FBE0F901F9018951F920F9218
:100660000FB60F9211240BB60F922F938F939F9377
:10067000EF93FF93E0917102F09172028081E0911B
:100680007702F091780282FD1DC0908180917A02FC
:100690008F5F8F7320917B02821741F0E0917A0285
:1006A000F0E0EF59FD4F958F80937A02FF91EF9123
:1006B0009F918F912F910F900BBE0F900FBE0F90B7
:1006C0001F9018958081F2CF1092640210926302FD
:1006D00088EE93E0A0E0B0E080936502909366021C
:1006E000A0936702B09368028AE092E0909362025E
:1006F0008093610285EC90E090936E0280936D028E
:1007000084EC90E09093700280936F0280EC90E014
:10071000909372028093710281EC90E09093740246
:100720008093730282EC90E090937602809375023E
:1007300086EC90E0909378028093770210927A0290
:1007400010927B0210927C0210927D02109209039B
:100750001092080310920B0310920A0310920D03DB
:1007600010920C0370E060E088E093E00E94920237
:100770002091080330910903811118C0211531051A
:1007800019F0C9010E94EF051092090310920803A5
:1007900010920D0310920C0310920B0310920A0397
:1007A0001092FE0281E08093FF02089510920D03E3
:1007B00010920C0364E472E0C9010E946207F0CF5A
:1007C000CF93DF93CDB7DEB7A3970FB6F894DEBF14
:1007D0000FBECDBF789484B5826084BD84B581603E
:1007E00084BD85B5826085BD85B5816085BD8091FC
:1007F0006E00816080936E00109281008091810074
:10080000826080938100809181008160809381006B
:10081000809180008160809380008091B10084602D
:100820008093B1008091B00081608093B00080918E
:10083000910082608093910080919100816080930B
:100840009100809190008160809390008091A10040
:1008500082608093A1008091A10081608093A100BB
:100860008091A00081608093A0008091210182602E
:1008700080932101809121018160809321018091E9
:10088000200181608093200180917A0084608093B0
:100890007A0080917A00826080937A0080917A0059
:1008A000816080937A0080917A00806880937A00DA
:1008B0001092C100E0917102F091720282E0808397
:1008C000E0916D02F0916E021082E0916F02F09162
:1008D00070028FEC808310927902E0917502F091A2
:1008E000760286E08083E0917302F0917402808149
:1008F00080618083E0917302F0917402808188604E
:100900008083E0917302F09174028081806880831B
:10091000E0917302F091740280818F7D808388E181
:1009200092E00E94850282E492E00E94850260EDDE
:1009300077E080E090E00E94DE00FF24F39481E302
:10094000E82E81E692E00E94AF01181619060CF01D
:100950007DC01A8219821C821B821E821D8270E059
:1009600060E0CE0101960E94920229813A818111B4
:100970002BC02115310519F0C9010E94EF051A821B
:1009800019821E821D821C821B820E94610197FDBA
:1009900023C08AA31BA20D811E810F5F1F4FB801C8
:1009A000CE0101960E949202882379F329813A812F
:1009B0008D819E81BE016E5D7F4F820F931F0E94CD
:1009C00062071E830D83E1CF1E821D8264E472E004
:1009D000C9010E946207D9CF809108039091090351
:1009E0000097C9F169817A816115710591F1409192
:1009F0000A0350910B032D813E814217530748F1A2
:100A00000E9462078D819E8190930D0380930C0359
:100A10001E821D8289819A81009711F00E94EF0544
:100A200085E492E00E948502F092FE0219A2E8A2FB
:100A3000CE0180960E94850282E492E00E948502A7
:100A400068E873E180E090E00E94DE000E945402BA
:100A500078CF0E94EF0589819A8190930903809352
:100A600008038B819C8190930B0380930A038D81F3
:100A70009E8190930D0380930C031A8219821C822D
:100A80001B82C6CF8091080390910903009711F053
:100A90000C94EF050895EE0FFF1F881F8BBF079082
:100AA000F691E02D19940F931F93CF93DF9382302B
:100AB000910510F482E090E0E0911003F0911103B1
:100AC00030E020E0B0E0A0E0309799F42115310546
:100AD00009F44AC0281B390B24303105D8F58A8126
:100AE0009B816115710589F1FB0193838283FE016E
:100AF00011C0408151810281138148175907E0F0EC
:100B00004817590799F4109761F012960C931297B1
:100B100013961C933296CF01DF91CF911F910F91C5
:100B200008950093100310931103F4CF211531059C
:100B300051F04217530738F0A901DB019A01BD01BA
:100B4000DF01F801C1CFEF01F9CF9093110380933A
:100B50001003CDCFFE01E20FF31F8193919322503A
:100B6000310939832883D7CF20910E0330910F03A9
:100B7000232B41F4209102023091030230930F03A2
:100B800020930E03209100023091010221153105BE
:100B900041F42DB73EB74091040250910502241B49
:100BA000350BE0910E03F0910F03E217F307A0F469
:100BB0002E1B3F0B2817390778F0AC014E5F5F4FB3
:100BC0002417350748F04E0F5F1F50930F034093D3
:100BD0000E03819391939FCFF0E0E0E09CCFCF9301
:100BE000DF930097E9F0FC01329713821282A09103
:100BF0001003B0911103ED0130E020E01097A1F453
:100C000020813181820F931F20910E0330910F03B9
:100C10002817390709F061C0F0930F03E0930E0322
:100C2000DF91CF910895EA01CE17DF07E8F54A81F9
:100C30005B819E0141155105B1F7E901FB83EA8310
:100C400049915991C40FD51FEC17FD0761F48081BC
:100C500091810296840F951FE9019983888382818F
:100C600093819B838A83F0E0E0E012968D919C91C2
:100C700013970097B9F52D913C911197CD010296EC
:100C8000820F931F20910E0330910F03281739070D
:100C900039F6309751F51092110310921003B0936A
:100CA0000F03A0930E03BCCFD383C2834081518135
:100CB000840F951FC817D90761F44E5F5F4F888175
:100CC0009981480F591F518340838A819B81938367
:100CD00082832115310509F0B0CFF0931103E09321
:100CE00010039ECFFD01DC01C0CF13821282D7CF4B
:100CF0004F925F926F927F928F929F92AF92BF922C
:100D0000CF92DF92EF92FF920F931F93CF93DF93D7
:100D10008C01009799F4CB01DF91CF911F910F9136
:100D2000FF90EF90DF90CF90BF90AF909F908F900B
:100D30007F906F905F904F900C945305FC01E60FED
:100D4000F71F9C0122503109E217F30708F4AEC0E7
:100D5000D901CD91DC911197C617D70720F1C53085
:100D6000D10578F0CE0104978617970750F0C61B7F
:100D7000D70B2297C193D1936D937C93CF010E949F
:100D8000EF05C801DF91CF911F910F91FF90EF9078
:100D9000DF90CF90BF90AF909F908F907F906F909B
:100DA0005F904F9008955B01AC1ABD0A4C018C0E08
:100DB0009D1EA0911003B0911103512C412CF12CD8
:100DC000E12C109731F580910E0390910F03881557
:100DD000990509F05CC04616570608F058C0809186
:100DE000000290910102009741F48DB79EB74091A7
:100DF000040250910502841B950BE817F90708F0CF
:100E000055C0F0930F03E0930E03F90171836083E3
:100E1000B8CF8D919C91119712966C901297139662
:100E20007C901397A815B90559F56C0142E0C40EE2
:100E3000D11CCA14DB0420F1AC014A195B09DA01A8
:100E40001296159780F06282738251834083D90194
:100E50006D937C93E114F10471F0D7011396FC9328
:100E6000EE9312978ECF22968C0F9D1FF9019183DE
:100E70008083F301EFCFF0931103E093100381CF50
:100E80004816590608F42C017D01D3019ACFCB01F5
:100E90000E9453057C01009749F0AE01B8010E9401
:100EA0005907C8010E94EF0587016BCF10E000E0F1
:100EB00068CFFB01DC0102C001900D92415050400F
:100EC000D8F70895FB01DC0101900D920020E1F7B5
:100ED000089510E0C5E8D0E000E006C0802FFE01D4
:100EE0000E944B052196011DC638D10780E00807F6
:060EF000A9F7F894FFCF02
:100EF60000001203800000000000E70111013E011E
:100F06003402AF014D01A10157656C636F6D652019
:100F1600746F2074686520456C657661746F722005
:100F260053797374656D2050726F746F7479706540
:100F360021000D0A00436F6D6D616E642065786552
:080F460063757465643A200034
:00000001FF
